{
  "contractName": "Verification",
  "abi": [
    {
      "constant": true,
      "inputs": [
        {
          "name": "",
          "type": "uint256"
        }
      ],
      "name": "signatures",
      "outputs": [
        {
          "name": "",
          "type": "string"
        }
      ],
      "payable": false,
      "stateMutability": "view",
      "type": "function"
    },
    {
      "inputs": [],
      "payable": false,
      "stateMutability": "nonpayable",
      "type": "constructor"
    },
    {
      "constant": false,
      "inputs": [
        {
          "name": "_bankAccount",
          "type": "uint256"
        },
        {
          "name": "_signature",
          "type": "string"
        }
      ],
      "name": "addCustomerSignature",
      "outputs": [],
      "payable": false,
      "stateMutability": "nonpayable",
      "type": "function"
    },
    {
      "constant": true,
      "inputs": [
        {
          "name": "_bankAccount",
          "type": "uint256"
        }
      ],
      "name": "getCustomerSignature",
      "outputs": [
        {
          "name": "",
          "type": "string"
        }
      ],
      "payable": false,
      "stateMutability": "view",
      "type": "function"
    },
    {
      "constant": false,
      "inputs": [
        {
          "name": "_message",
          "type": "string"
        },
        {
          "name": "_account",
          "type": "address"
        },
        {
          "name": "_signature",
          "type": "string"
        }
      ],
      "name": "verifyCustomerSignature",
      "outputs": [
        {
          "name": "",
          "type": "bool"
        }
      ],
      "payable": false,
      "stateMutability": "nonpayable",
      "type": "function"
    }
  ],
  "bytecode": "0x6060604052341561000f57600080fd5b610bb78061001e6000396000f300606060405260043610610062576000357c0100000000000000000000000000000000000000000000000000000000900463ffffffff1680630aa62e19146100675780637c8bb47f146101035780638be10194146101da578063f4b7be5914610276575b600080fd5b341561007257600080fd5b61008860048080359060200190919050506102dc565b6040518080602001828103825283818151815260200191508051906020019080838360005b838110156100c85780820151818401526020810190506100ad565b50505050905090810190601f1680156100f55780820380516001836020036101000a031916815260200191505b509250505060405180910390f35b341561010e57600080fd5b6101c0600480803590602001908201803590602001908080601f0160208091040260200160405190810160405280939291908181526020018383808284378201915050505050509190803573ffffffffffffffffffffffffffffffffffffffff1690602001909190803590602001908201803590602001908080601f01602080910402602001604051908101604052809392919081815260200183838082843782019150505050505091905050610396565b604051808215151515815260200191505060405180910390f35b34156101e557600080fd5b6101fb60048080359060200190919050506106a1565b6040518080602001828103825283818151815260200191508051906020019080838360005b8381101561023b578082015181840152602081019050610220565b50505050905090810190601f1680156102685780820380516001836020036101000a031916815260200191505b509250505060405180910390f35b341561028157600080fd5b6102da600480803590602001909190803590602001908201803590602001908080601f01602080910402602001604051908101604052809392919081815260200183838082843782019150505050505091905050610751565b005b6102e4610abe565b6000808381526020019081526020016000208054600181600116156101000203166002900480601f01602080910402602001604051908101604052809291908181526020018280546001816001161561010002031660029004801561038a5780601f1061035f5761010080835404028352916020019161038a565b820191906000526020600020905b81548152906001019060200180831161036d57829003601f168201915b50505050509050919050565b60006103a0610abe565b6103a8610abe565b6103b0610abe565b60008060008060006103cf608260028c61077c9092919063ffffffff16565b995061042f6103eb600060408d61077c9092919063ffffffff16565b6040805190810160405280600281526020017f30780000000000000000000000000000000000000000000000000000000000008152506108a490919063ffffffff16565b975061048f61044b604060808d61077c9092919063ffffffff16565b6040805190810160405280600281526020017f30780000000000000000000000000000000000000000000000000000000000008152506108a490919063ffffffff16565b96506104a8608060828c61077c9092919063ffffffff16565b95506104b388610a8d565b94506104be87610a8d565b935073__Integers______________________________6342346c5e876000604051602001526040518263ffffffff167c01000000000000000000000000000000000000000000000000000000000281526004018080602001828103825283818151815260200191508051906020019080838360005b8381101561054f578082015181840152602081019050610534565b50505050905090810190601f16801561057c5780820380516001836020036101000a031916815260200191505b509250505060206040518083038186803b151561059857600080fd5b6102c65a03f415156105a957600080fd5b5050506040518051905092506000915060008314156105cb57601b91506105d0565b601c91505b6105d98c610a8d565b9050600181838787604051600081526020016040526000604051602001526040518085600019166000191681526020018460ff1660ff16815260200183600019166000191681526020018260001916600019168152602001945050505050602060405160208103908084039060008661646e5a03f1151561065957600080fd5b50506020604051035173ffffffffffffffffffffffffffffffffffffffff168b73ffffffffffffffffffffffffffffffffffffffff1614985050505050505050509392505050565b60006020528060005260406000206000915090508054600181600116156101000203166002900480601f0160208091040260200160405190810160405280929190818152602001828054600181600116156101000203166002900480156107495780601f1061071e57610100808354040283529160200191610749565b820191906000526020600020905b81548152906001019060200180831161072c57829003601f168201915b505050505081565b806000808481526020019081526020016000209080519060200190610777929190610ad2565b505050565b610784610abe565b61078c610b52565b610794610abe565b61079c610b52565b6000808894508451888801111515156107b157fe5b876040518059106107bf5750595b9080825280601f01601f19166020018201604052509350839250600091508690505b8787018110156108955784818151811015156107f957fe5b9060200101517f010000000000000000000000000000000000000000000000000000000000000090047f010000000000000000000000000000000000000000000000000000000000000002838380600101945081518110151561085857fe5b9060200101907effffffffffffffffffffffffffffffffffffffffffffffffffffffffffffff1916908160001a90535080806001019150506107e1565b82955050505050509392505050565b6108ac610abe565b6108b4610b52565b6108bc610b52565b6108c4610abe565b6108cc610b52565b600080889550879450600085511115156108e257fe5b84518651016040518059106108f45750595b9080825280601f01601f19166020018201604052509350839250600091505b85518210156109c657858281518110151561092a57fe5b9060200101517f010000000000000000000000000000000000000000000000000000000000000090047f010000000000000000000000000000000000000000000000000000000000000002838280600101935081518110151561098957fe5b9060200101907effffffffffffffffffffffffffffffffffffffffffffffffffffffffffffff1916908160001a9053508180600101925050610913565b600091505b8451821015610a7e5784828151811015156109e257fe5b9060200101517f010000000000000000000000000000000000000000000000000000000000000090047f0100000000000000000000000000000000000000000000000000000000000000028382806001019350815181101515610a4157fe5b9060200101907effffffffffffffffffffffffffffffffffffffffffffffffffffffffffffff1916908160001a90535081806001019250506109cb565b82965050505050505092915050565b6000610a97610b52565b829050600081511415610ab05760006001029150610ab8565b602083015191505b50919050565b602060405190810160405280600081525090565b828054600181600116156101000203166002900490600052602060002090601f016020900481019282601f10610b1357805160ff1916838001178555610b41565b82800160010185558215610b41579182015b82811115610b40578251825591602001919060010190610b25565b5b509050610b4e9190610b66565b5090565b602060405190810160405280600081525090565b610b8891905b80821115610b84576000816000905550600101610b6c565b5090565b905600a165627a7a7230582033c6918ab61eaa3335478383a707394bfcdb1552fbfac244b47ed97d33d856630029",
  "source": "pragma solidity ^0.4.0;\r\nimport \"./Strings.sol\";\r\nimport \"./Integers.sol\";\r\n\r\ncontract Verification {\r\n    \r\n    using Strings for *;\r\n    using Integers for uint;\r\n\r\n    // Store bank accounts with signature\r\n    mapping(uint256 => string) public signatures;\r\n\r\n    // constructor\r\n    function Verification () public {\r\n        \r\n    }\r\n\r\n    // method to insert new customer signature\r\n    function addCustomerSignature (uint256 _bankAccount, string _signature) public {        \r\n        signatures[_bankAccount] = _signature;\r\n    }\r\n\r\n    // method to retrieve customer signature\r\n    function getCustomerSignature (uint256 _bankAccount) public view returns (string) {        \r\n        return signatures[_bankAccount];\r\n    }\r\n\r\n    // method to verify customer signature\r\n    function verifyCustomerSignature (string _message, address _account, string _signature) public  returns (bool) {\r\n        // ecrecover of signature should be equal to account\r\n        _signature = _signature._substring(130,2); //remove 0x\r\n        string memory rs = \"0x\".concat(_signature._substring(0, 64));\r\n        string memory ss = \"0x\".concat(_signature._substring(64, 128));\r\n        string memory vs = _signature._substring(128, 130);\r\n        bytes32 r = stringToBytes32(rs);\r\n        bytes32 s = stringToBytes32(ss);\r\n        uint vi = Integers.parseInt(vs);\r\n        uint8 v = 0;\r\n        if (vi == 0) {\r\n            v = 27;\r\n        } else {\r\n            v = 28;\r\n        }\r\n        bytes32 _messageBytes = stringToBytes32(_message);\r\n        return _account == ecrecover(_messageBytes, v, r, s);\r\n    }\r\n    \r\n    function stringToBytes32(string memory source) private pure returns (bytes32 result) {\r\n        bytes memory tempEmptyStringTest = bytes(source);\r\n        if (tempEmptyStringTest.length == 0) {\r\n            return 0x0;\r\n        }\r\n        assembly {\r\n            result := mload(add(source, 32))\r\n        }\r\n    }\r\n\r\n}\r\n",
  "sourcePath": "C:\\Users\\hhjb4291\\Desktop\\Dapp\\election\\contracts\\Verification.sol",
  "compiler": {
    "name": "solc",
    "version": "0.4.19+commit.c4cbbb05.Emscripten.clang"
  },
  "schemaVersion": "2.0.0",
  "updatedAt": "2018-03-13T08:36:56.612Z"
}